:020000040000FA
:100000005DEF1DF01200FFFF04EF04F01200FFFF90
:10001000FFFFFFFFFFFFFFFF0CEF04F01200FFFFE9
:10002000FFFFFFFFFFFFFFFFFFFFFFFFFFFFFFFFE0
:10003000FFFFFFFFFFFFFFFFFFFFFFFFFFFFFFFFD0
:10004000FFFFFFFFFFFFFFFFFFFFFFFFFFFFFFFFC0
:10005000FFFFFFFFFFFFFFFFFFFFFFFFFFFFFFFFB0
:100800005DEF1DF01200FFFFFEEF17F01200FFFF7B
:10081000FFFFFFFFFFFFFFFF27EF18F01200FFFFB2
:10082000FFFFFFFFFFFFFFFFFFFF0500E33A0000B0
:100830001801000001000000E23A0000170100006A
:1008400001000000D93A00000A0100000900000080
:10085000D83A000016010000010000002F39000006
:100860001501000001000000D9CFE6FFE1CFD9FF5C
:10087000FC0EDBCF60F0FD0EDBCF61F0FE0EDBCFB8
:1008800062F0F90EDBCF63F0FA0EDBCF64F0FB0E03
:10089000DBCF65F0F60EDBCF66F0F70EDBCF67F04F
:1008A000F80EDBCF68F0F40EDBCF69F0F50EDBCF8E
:1008B0006AF000016B6B6C6B00016D6B6E6B00017D
:1008C0006F6B706B000EE66EE66A000EE66EE66A0F
:1008D000F5EC0BF0E552E552E552E552000EE66EFE
:1008E000E66A000EE66EE66A13EC0CF0E552E5529D
:1008F000E552E55221D8140E6F6E6D98E552E7CFA0
:10090000D9FF12006D860001010EB56F6DBAFED7DA
:100910000001040EB56F12006A6A120068960001A9
:10092000B36BB46B0001040EB56F0001B66B68B613
:10093000F5D702D86D981200D9CFE6FFE1CFD9FFE5
:10094000020EE12600016B6B6C6B00016D6B6E6B30
:1009500000016F6B706B6E6A6D8C6D9C6A6ADE6AEB
:10096000DD6ADECF10F0DDCF11F0D890115004E633
:10097000100E105C000E115832E2DECFE9FFDDCF21
:10098000EAFFD890E936EA36D890E936EA36710EB1
:10099000E926000EEA22020EE926000EEA22EE6A9D
:1009A000ED6ADECFE9FFDDCFEAFFD890E936EA361F
:1009B000D890E936EA36710EE926000EEA22EE6A90
:1009C000ED6ADECFE9FFDDCFEAFF700EE9260F0EFC
:1009D000EA22EF6ADF2A010E01E3DB2AC2D7DE6AD0
:1009E000DD6ADECF10F0DDCF11F0D890115004E6B3
:1009F000060E105C000E115814E2DECFE9FFDDCFC9
:100A0000EAFFD890E936EA36D890E936EA36000EA1
:100A1000E926040EEA22EF6ADF2A010E01E3DB2A4F
:100A2000E0D7160E706E0001B16BB26B0001B56BB2
:100A30000001B36BB46B0001B66B0401080E016FCB
:100A40000401800E026F040E036F0401880E006F14
:100A50000401056B0401880E066F040E076F040184
:100A6000480E046F020EE15C02E2E16AE552E16EBB
:100A7000E552E7CFD9FF120068A803D0FCEC17F0CD
:100A8000689868A002D04ADF689068A202D06A6ABB
:100A9000689268BA689A68AC0CD000016B516C110E
:100AA00007E005D06CC0FAFF00016B51F96EFADF68
:100AB000689C68A609D06C50E840E840E8401F0BED
:100AC0000F0B01E102D8689612000001C16B6CCFD8
:100AD000B7F00001B751FC0BE842E842040DF3CF38
:100AE000B8F0F4CFB9F0000E0001B827040E0001F1
:100AF000B923040E0001B711FC0BE842E842040DD3
:100B0000F3CFBAF0F4CFBBF0000E0001BA27040E09
:100B10000001BB23B8C0E9FFB9C0EAFFEF503C0BAE
:100B2000240A0AE0200A05E0300A01E008D008D8CB
:100B300006D095EC0BF003D067EC0BF000D0120060
:100B4000BAC0E9FFBBC0EAFF080EEF6E6D98B8C0EF
:100B5000E9FFB9C0EAFF020EE926000EEA22EE50D4
:100B6000EFCFEAFFE96EEF50600B400A42E0600A07
:100B700034E0200A01E049D0B8C0E9FFB9C0EAFF7B
:100B8000020EE926000EEA22EE50EFCFEAFFE96EF0
:100B9000EF50030B020A15E0030A0BE0010A01E023
:100BA00019D0B8C0E6FFB9C0E6FF7CD8E552E552DF
:100BB00013D0B8C0E6FFB9C0E6FF94DBE552E552BA
:100BC0000BD0B8C0E6FFB9C0E6FF0FEC0AF0E55263
:100BD000E55202D055EC0CF01AD000016D516E11A7
:100BE00007E005D06EC0FAFF00016D51F96EFADF23
:100BF0000ED000016F51701107E005D070C0FAFFF0
:100C000000016F51F96EFADF02D055EC0CF0B8C05C
:100C1000E9FFB9C0EAFFEE52080EEF6EB8C0E9FF77
:100C2000B9C0EAFF020EE926000EEA22EE50EFCF2D
:100C3000EAFFE96EEF50800B24E1B8C0E9FFB9C0CC
:100C4000EAFF020EE926000EEA22EE50EFCFEAFF9D
:100C5000E96E060EE926000EEA22EF5014E1B8C054
:100C6000E9FFB9C0EAFF020EE926000EEA22EE50C3
:100C7000EFCFEAFFE96E070EE926000EEA22EF50F9
:100C800002E1000E01D0010E000902E0C80E01D001
:100C9000880EE66EB8C0E9FFB9C0EAFFE552E7503A
:100CA000EF6E1200D9CFE6FFE1CFD9FF040EE126A7
:100CB000FD0EDBCFE9FFFE0EDBCFEAFF020EE926D9
:100CC000000EEA22EECFDEFFEDCFDDFFDECFE9FF43
:100CD000DDCFEAFF010EE926000EEA22EF50070AF7
:100CE00001E1F5D20E0A01E1C3D2010A01E1ABD262
:100CF0000E0A01E19FD0030A64E0060A4BE0020AF3
:100D000032E0010A01E0E3D20001B151E66EBAC05F
:100D1000E9FFBBC0EAFF020EE926000EEA22EE5010
:100D2000EFCFEAFFE96EE552E750EF6EB2C010F088
:100D3000116ABAC0E9FFBBC0EAFF020EE926000E45
:100D4000EA22EE50EFCFEAFFE96E010EE926000E2F
:100D5000EA2210C0EFFF020EE66EE66A35EC0CF0F8
:100D6000E552E552B5D2DECFE9FFDDCFEAFF020E54
:100D7000E926000EEA22EF040AE10001B193000E19
:100D8000E66EE66A35EC0CF0E552E55202D055EC21
:100D90000CF09ED2DECFE9FFDDCFEAFF020EE9269E
:100DA000000EEA22EF040AE10001B183000EE66EB4
:100DB000E66A35EC0CF0E552E55202D055EC0CF049
:100DC00087D2DECFE9FFDDCFEAFF030EE926000E72
:100DD000EA22EF502CE17F0E106EDECFE9FFDDCF6F
:100DE000EAFF020EE926000EEA22EF50105C1FE334
:100DF000DECFE9FFDDCFEAFF020EE926000EEA2290
:100E0000EFCFB6F0BE0EE66E180EE66E000EE66E82
:100E1000E66AF5EC0BF0E552E552E552E552000EBC
:100E2000E66EE66A35EC0CF0E552E55202D055EC80
:100E30000CF04ED2DECFE9FFDDCFEAFF030EE9264C
:100E4000000EEA22EF50040A01E1E7D1010A01E1B4
:100E5000E4D1060A01E14FD1010A3FE0030A01E0B3
:100E6000DCD160C0BCF061C0BDF062C0BEF060C04B
:100E7000F6FF61C0F7FF62C0F8FF0800F5500001FF
:100E8000BF6FC06BDECFE9FFDDCFEAFF070EE926BB
:100E9000000EEA22EF5020E1DECFE9FFDDCFEAFFCE
:100EA000060EE926000EEA22EFCF10F0BCC0F6FFD6
:100EB000BDC0F7FFBEC0F8FF0800F550105C0CE2A3
:100EC000DECFE9FFDDCFEAFF060EE926000EEA22BB
:100ED000EF500001BF6FC06BA3D1DECFE9FFDDCFC4
:100EE000EAFF020EE926000EEA22EFCF10F060C002
:100EF000F6FF61C0F7FF62C0F8FF110EF626000E84
:100F0000F722000EF8220800F550105C04E30001FF
:100F1000010EC16F85D163C0BCF064C0BDF065C077
:100F2000BEF0BCC0F6FFBDC0F7FFBEC0F8FF030EA9
:100F3000F626000EF722000EF8220800F550106E7B
:100F4000116A10C011F0106ABCC0F6FFBDC0F7FFF7
:100F5000BEC0F8FF020EF626000EF722000EF822A1
:100F60000800F55000011024BF6F000E1120C06F63
:100F7000020EDB6A030EDB6A020EDBCF10F0030EFB
:100F8000DBCF11F0DECFE9FFDDCFEAFF020EE9266D
:100F9000000EEA22EF50000111AE02D0D89003D02B
:100FA000105C000E11583BE2BFC010F0C0C011F041
:100FB000126A10500001BC2711500001BD231250CD
:100FC0000001BE23BCC0F6FFBDC0F7FFBEC0F8FFE6
:100FD000030EF626000EF722000EF8220800F55048
:100FE000106E116A10C011F0106ABCC0F6FFBDC0CF
:100FF000F7FFBEC0F8FF020EF626000EF722000E25
:10100000F8220800F55000011024BF6F000E1120D7
:10101000C06F020EDB2A030E01E3DB2AADD7DECF61
:10102000E9FFDDCFEAFF070EE926000EEA22EFCF47
:1010300010F0BCC0F6FFBDC0F7FFBEC0F8FF030E46
:10104000F626000EF722000EF8220800F550105C7C
:1010500034E3DECFE9FFDDCFEAFF070EE926000E1D
:10106000EA22EFCF11F0BCC0F6FFBDC0F7FFBEC053
:10107000F8FF030EF626000EF722000EF8220800F5
:10108000F550115C37E1DECFE9FFDDCFEAFF060E58
:10109000E926000EEA22EFCF12F0BCC0F6FFBDC079
:1010A000F7FFBEC0F8FF020EF626000EF722000E74
:1010B000F8220800F550125C1DE2DECFE9FFDDCF1B
:1010C000EAFF070EE926000EEA22EF50106E116AC1
:1010D00010C011F0106ADECFE9FFDDCFEAFF060E87
:1010E000E926000EEA22EF5000011024BF6F000E27
:1010F0001120C06F95D0DECFE9FFDDCFEAFF020EF1
:10110000E926000EEA22EF50106E116A000111501C
:101110006A19E8AE02D06A3504D06951105C6A5190
:10112000115804E30001010EC16F7AD066C0BCF013
:1011300067C0BDF068C0BEF0BCC0F6FFBDC0F7FF21
:10114000BEC0F8FF0800F5500001BF6FC06B020E73
:10115000DB6A030EDB6A020EDBCF10F0030EDBCF7F
:1011600011F0DECFE9FFDDCFEAFF020EE926000E27
:10117000EA22EF50000111AE02D0D89003D0105CEB
:10118000000E11581FE2BFC010F0C0C011F0126A6B
:1011900010500001BC2711500001BD231250000166
:1011A000BE23BCC0F6FFBDC0F7FFBEC0F8FF0800FD
:1011B000F5500001BF6FC06B020EDB2A030E01E386
:1011C000DB2AC9D7DECFE9FFDDCFEAFF070EE9262C
:1011D000000EEA22EF5020E1DECFE9FFDDCFEAFF8B
:1011E000060EE926000EEA22EFCF10F0BCC0F6FF93
:1011F000BDC0F7FFBEC0F8FF0800F550105C0CE260
:10120000DECFE9FFDDCFEAFF060EE926000EEA2277
:10121000EF500001BF6FC06B03D00001010EC16F22
:101220000001C1510EE165DBF20EE66E180EE66EAE
:10123000000EE66EE66AD9DAE552E552E552E5526D
:1012400001D033DB45D0BAC0E9FFBBC0EAFF020ED4
:10125000E926000EEA22EE50EFCFEAFFE96EB3C0B6
:10126000EFFF010EE66EE66A00DBE552E55230D094
:10127000010E106EDECFE9FFDDCFEAFF020EE92698
:10128000000EEA22EF50105C20E3DECFE9FFDDCF55
:10129000EAFF020EE926000EEA22EF500001B36FCA
:1012A000B46B0001B351B41106E00001200EB56F1C
:1012B000CEEC11F003D00001100EB56F000EE66EFB
:1012C000E66AD3DAE552E55201D0EFDA01D0EDDA81
:1012D000040EE15C02E2E16AE552E16EE552E7CF1D
:1012E000D9FF1200D9CFE6FFE1CFD9FF020EE126E8
:1012F000FD0EDBCFE9FFFE0EDBCFEAFF020EE92693
:10130000000EEA22EECFDEFFEDCFDDFFDECFE9FFFC
:10131000DDCFEAFF010EE926000EEA22EF50010AB6
:1013200073E0020A71E0080A4EE0010A28E00A0AA6
:1013300001E06AD0BAC0E9FFBBC0EAFF020EE926AD
:10134000000EEA22EE50EFCFEAFFE96EEF6ABAC074
:10135000E9FFBBC0EAFF020EE926000EEA22EE50CA
:10136000EFCFEAFFE96E010EE926000EEA22EF6AEE
:10137000020EE66EE66A79DAE552E55246D0020ED2
:10138000106EDECFE9FFDDCFEAFF040EE926000E86
:10139000EA22EF50D880105414E2BAC0E9FFBBC073
:1013A000EAFF020EE926000EEA22EE50EFCFEAFF36
:1013B000E96EEF6A010EE66EE66A57DAE552E5522B
:1013C00001D073DA22D0020E106EDECFE9FFDDCF3E
:1013D000EAFF040EE926000EEA22EF50D8801054EE
:1013E00011E2DECFE9FFDDCFEAFF020EE926000EB3
:1013F000EA22EF5007E1000EE66EE66A36DAE552C1
:10140000E55201D052DA01D050DA020EE15C02E27C
:10141000E16AE552E16EE552E7CFD9FF1200D9CF7C
:10142000E6FFE1CFD9FF080EE126FD0EDBCFE9FF95
:10143000FE0EDBCFEAFF020EE926000EEA22EECF17
:10144000DEFFEDCFDDFFDECFE9FFDDCFEAFF010EEE
:10145000E926000EEA22EF500C0A01E12DD10F0A15
:1014600001E1E8D0020A73E0010A01E025D1BAC027
:10147000E9FFBBC0EAFF020EE926000EEA22EE50A9
:10148000EFCFEAFFE96EEF6ABAC0E9FFBBC0EAFF3F
:10149000020EE926000EEA22EE50EFCFEAFFE96ED7
:1014A000010EE926000EEA22EF6ADECFE9FFDDCF6A
:1014B000EAFF040EE926000EEA22EF500F0BE76E5A
:1014C000020EE7CFDBFFDECFE9FFDDCFEAFF040E40
:1014D000E926000EEA22EF50E844010BE76E030E06
:1014E000E7CFDBFF030EDBCFE6FF020EDB50E82485
:1014F000E552E724040DF3CF10F0F4CF11F0000E05
:101500001026040E1122040E10C0DBFF050E11C0C0
:10151000DBFF040EDBCFE9FF050EDBCFEAFFEF9424
:10152000EF500EE0BAC0E9FFBBC0EAFF020EE926A9
:10153000000EEA22EE50EFCFEAFFE96E010EEF6EE9
:10154000020EE66EE66A91D9E552E552B6D0DECFDC
:10155000E9FFDDCFEAFF040EE926000EEA22EF5094
:101560000F0BE76E020EE7CFDBFFD950060FE96ED7
:10157000DACFEAFF700EEE6E0F0EED6E020EDB504C
:10158000106E116AD950060FE96EDACFEAFF1050DB
:10159000EE261150ED22060EDBCFE9FF070EDBCF62
:1015A000EAFFEF90DECFE9FFDDCFEAFF040EE92688
:1015B000000EEA22EF50E844010BE76E030EE7CF7E
:1015C000DBFF030EDBCFE6FF020EDB50E824E55223
:1015D000E724040DF3CF10F0F4CF11F0000E102625
:1015E000040E1122040E10C0DBFF050E11C0DBFF3C
:1015F000040EDBCFE9FF050EDBCFEAFFEF94030E0D
:10160000DB5007E0040EDBCFE9FF050EDBCFEAFF7E
:10161000EF8C030EDB5007E1040EDBCFE9FF050E74
:10162000DBCFEAFFEF9C000EE66EE66A1ED9E552BC
:10163000E55243D0DECFE9FFDDCFEAFF040EE92615
:10164000000EEA22EF500F0BE76E020EE7CFDBFF32
:10165000DECFE9FFDDCFEAFF040EE926000EEA2225
:10166000EF50E844010BE76E030EE7CFDBFF030EFC
:10167000DBCFE6FF020EDB50E824E552E724040D41
:10168000F3CF10F0F4CF11F0000E1026040E11224B
:10169000040E10C0DBFF050E11C0DBFF040EDBCF14
:1016A000E9FF050EDBCFEAFFEF84000EE66EE66A87
:1016B000DCD8E552E55201D0F8D8080EE15C02E230
:1016C000E16AE552E16EE552E7CFD9FF1200000171
:1016D000B751E840E840E8401F0B0F0B040DF3CF73
:1016E000E9FFF4CFEAFF710EE926000EEA22EE5080
:1016F000ED101AE00001B751E840E840E8401F0B48
:101700000F0B040DF3CFE9FFF4CFEAFF710EE926CA
:10171000000EEA22EECF10F0EFCF11F004D011C08E
:10172000FAFF1050F96EFBDF12000001B751E840DC
:10173000E840E8401F0B0F0B040DF3CFE9FFF4CF97
:10174000EAFF710EE926000EEA22020EE926000EDB
:10175000EA22EE50ED101EE00001B751E840E840EB
:10176000E8401F0B0F0B040DF3CFE9FFF4CFEAFFA6
:10177000710EE926000EEA22020EE926000EEA2288
:10178000EECF10F0EFCF11F004D011C0FAFF1050DF
:10179000F96EFBDF1200D9CFE6FFE1CFD9FFFD0ED6
:1017A000DBCF6BF0FE0EDBCF6CF0E552E7CFD9FF5D
:1017B0001200D9CFE6FFE1CFD9FFFD0EDBCF6DF0F0
:1017C000FE0EDBCF6EF0E552E7CFD9FF1200D9CF86
:1017D000E6FFE1CFD9FFFD0EDBCF6FF0FE0EDBCFD2
:1017E00070F0E552E7CFD9FF1200D9CFE6FFE1CF85
:1017F000D9FFFD0EDBCFE9FFFE0EDBCFEAFFD8906D
:10180000E936EA36D890E936EA36710EE926000E56
:10181000EA22FB0EDBCFEEFFFC0EDBCFEDFFE55245
:10182000E7CFD9FF1200D9CFE6FFE1CFD9FFFD0EF8
:10183000DBCFE9FFFE0EDBCFEAFFD890E936EA36D0
:10184000D890E936EA36710EE926000EEA22020E39
:10185000E926000EEA22FB0EDBCFEEFFFC0EDBCF0B
:10186000EDFFE552E7CFD9FF1200D9CFE6FFE1CF78
:10187000D9FFFF0EE76EFD0EDBCF10F0FE0EDBCFC3
:1018800011F0E7501016116ABAC0E9FFBBC0EAFFB9
:10189000EE5210C0EFFFBAC0E9FFBBC0EAFFC80EAE
:1018A000EF6EE552E7CFD9FF12000401080E016F79
:1018B0000401840E046F0401840E006F1200000105
:1018C000B65104E10001040EB56F03D00001100E03
:1018D000B56FB6C06EFF0001B669000EE66EE66A2F
:1018E000000EE66EE66A81DFE552E552E552E5520A
:1018F0001200D9CFE6FFE1CFD9FF040EE1260001A7
:10190000BF51C0115AE00001080EBF5D000EC05962
:1019100005E2BFC010F0C0C011F003D0080E106E79
:10192000116A020E10C0DBFF030E11C0DBFFDE6A7E
:10193000DD6ADECF10F0DDCF11F0020EDBCF12F04A
:10194000030EDBCF13F01250105C1350115834E229
:10195000DECF12F0DDCF13F0146A0001BC51122467
:10196000F36E0001BD511320F46E0001BE5114202E
:10197000F86EF4CFF7FFF3CFF6FF0800F550E66EF0
:10198000DECF10F0DDCF11F0BAC0E9FFBBC0EAFF37
:10199000020EE926000EEA221050EE24E76E1150E6
:1019A000EE20EA6EE7CFE9FFE552E750EF6EDF2A5F
:1019B000010E01E3DB2ABDD70FD0020EDB6A030E56
:1019C000DB6A000EE66EE66A000EE66EE66A0DDF82
:1019D000E552E552E552E552BAC0E9FFBBC0EAFF65
:1019E000EE52020EDBCFEFFFBAC0E9FFBBC0EAFF49
:1019F000EF50400A400B80090809E66EBAC0E9FFC3
:101A0000BBC0EAFFE552E750EF6E020EDBCF10F0ED
:101A1000030EDBCF11F0126A10500001BC271150E9
:101A20000001BD2312500001BE23020EDBCF06F0E1
:101A3000030EDBCF07F006500001BF5F0750000127
:101A4000C05B040EE15C02E2E16AE552E16EE55240
:101A5000E7CFD9FF1200D9CFE6FFE1CFD9FF020EC1
:101A60000101135D09E2FD0EDB50C00B106E3F0E4D
:101A70008B1410108B6E10D0FD0EDB503C0B106ED3
:101A8000C30E89141010896EFE0EDB50290B106EE8
:101A9000D60E8A1410108A6EE552E7CFD9FF1200D5
:101AA000D9CFE6FFE1CFD9FF020E0101135D09E2B4
:101AB000FD0EDB50C00B106E3F0E94141010946E90
:101AC00010D0FD0EDB503C0B106EC30E92141010A4
:101AD000926EFE0EDB50290B106ED60E9314101072
:101AE000936EE552E7CFD9FF1200020E0101135D9C
:101AF00004E2C00E82141DD01CD08150200B01E0E6
:101B0000010E400DF3CF12F08150080B01E0010EE1
:101B1000200DF3CF11F08150010B100DF3CF10F019
:101B20008050E840E8403F0B0F0B101011101210CE
:101B300000D01200D9CFE6FFE1CFD9FFE6529D9247
:101B4000F296530EE66E62EC15F0E552300EE66E3C
:101B500062EC15F0E552310EE66E62EC15F0E552DE
:101B600018EC15F094948B949E929D924E0ECB6E31
:101B7000050ECA6E270EBE6E100EBD6E9482938245
:101B800094800001E9930001E9950001E9970001C3
:101B9000E86B0001E76B0001E9910001E9990001A0
:101BA000E99F0001EA910001E99D0001EA93D56AED
:101BB000070ED56ED596CD6A8150DF6EF290F28613
:101BC000E552E552E7CFD9FF1200D9CFE6FFE1CFCA
:101BD000D9FF040EE126AEDFDE52010EDD6ED950D4
:101BE000030FE66E000EDA20E66EAFEC15F0E5525C
:101BF000E552000901E1FBD1030EDB50310A01E19E
:101C0000ECD1370A01E1E9D1360A01E1DDD1720AEE
:101C100001E1DAD1470A01E1D7D1440A01E1D2D189
:101C2000010A01E1CDD1030A01E1C7D1710A01E145
:101C3000BCD1110A01E18FD1070A01E189D1170A4C
:101C400001E170D1160A01E16AD1030A01E164D110
:101C5000350A01E15FD1010A01E15AD1030A01E12C
:101C600055D1010A01E150D1140A01E127D1040A3A
:101C700001E115D1030A01E0B9D10001EC6BED6B74
:101C8000F29A9D90F2960001E9910001E995000118
:101C9000E9970001E993020EF36E020EF3CFDBFF2A
:101CA0000001DD6B0001EA9589900001E9AD09D0E2
:101CB0003E0EE66E62EC15F0E55218EC15F03CECC9
:101CC00005F06FEC14F0DF6E0001CC6BDF5001E12A
:101CD000B0D00001E9AD09D03E0EE66E62EC15F021
:101CE000E55218EC15F03CEC05F00001EB6BDF5011
:101CF0000001EB5D01E39DD0D1C0E9FFD2C0EAFF56
:101D0000EF50FF0821E1010E0001EA6AD125E96EDA
:101D1000D251EA22EF50FF0817E10001DD69010E00
:101D2000F36E020EF3CFDBFFDFCFEBF0010E00010D
:101D3000EA6AD125E96ED251EA22EF6A140ED1C0C7
:101D4000E9FFD2C0EAFFEF6ED1C0E9FFD2C0EAFFDF
:101D5000EF1CD1C0E9FFD2C0EAFFEF6E010E000117
:101D6000EA6AD125E96ED251EA22EF1CE66E010E35
:101D70000001EA6AD125E96ED251EA22E552E75024
:101D8000EF6E010E0001EA6AD125E96ED251EA2216
:101D9000EF2A010E0001EA6AD125E96ED251EA224A
:101DA000EF5005E1D1C0E9FFD2C0EAFFEF2A000100
:101DB000E9A503D03CEC05F0FAD7D1C0E9FFD2C0C9
:101DC000EAFFEFCFDCF0010E0001EA6AD125E96EEF
:101DD000D251EA22EFCFDBF0020E0001EC27000E19
:101DE0000001ED230001E9B114D0A0BA02D03CEC0F
:101DF00005F00001E981DCC0D7FFDBC0D6FFF2941B
:101E0000F28AD58ECC6A0C0EBD120001E98B898056
:101E100002D00001E985020EDB0401E10AD0020EC6
:101E20000001EB27020E0001D127000E0001D22392
:101E30005ED7020EDB0401E044D73CEC05F0000164
:101E4000E9AF15D0740EE66E62EC15F0E552EDC008
:101E500010F0116A1050E66E62EC15F0E5520001C8
:101E6000EC51E66E62EC15F0E55218EC15F000014D
:101E7000E9B5FDD789900001EAA110D00001EAA5DB
:101E800006D0460EE66E62EC15F0E55205D0430E24
:101E9000E66E62EC15F0E55218EC15F0A8D0F29A57
:101EA000D56ACA94B16ABA6ACD909D90F29694842C
:101EB0008B9489909290010EDB6A99D001011351A5
:101EC000010821E20001EB6B050E0001EB5D0FE262
:101ED0000001EB51EA6ADE0FE96E000EEA22EF50D4
:101EE000E66E62EC15F0E5520001EB2BEDD7B25037
:101EF000E66E62EC15F0E552B350E66E62EC15F05A
:101F0000E55218EC15F073D0928071D092906FD09A
:101F100089806DD089906BD00001E98D68D0000177
:101F2000EA8165D0740EE66E62EC15F0E552EDC004
:101F300010F0116A1050E66E62EC15F0E5520001E7
:101F4000EC51E66E62EC15F0E55218EC15F04FD04E
:101F50000001E98F4CD0CB50E66E62EC15F0E552F3
:101F6000BE50E66E62EC15F0E552CA50E66E62ECC9
:101F700015F0E552D550E66E62EC15F0E552020E12
:101F8000E66E62EC15F0E552DC0EE66E62EC15F0E2
:101F9000E5526C0EE66E62EC15F0E552E66A62EC14
:101FA00015F0E55218EC15F022D09FDDE66E62ECDC
:101FB00015F0E55218EC15F01AD0F090F08617D015
:101FC0000AD915D011D913D0030EDBCFE6FF010ECD
:101FD000E66E84D8E552E5520AD0030EDBCFE6FF69
:101FE000020EE66E7BD8E552E55201D000D000012A
:101FF000E9B93BD00001E9A31AD0CFC0E9FFD0C0B6
:10200000EAFFD9C0EFFF0001E72B0001CF2B000E44
:10201000D023CFC0E9FFD0C0EAFFDAC0EFFF000154
:10202000E72B0001CF2B000ED0230001E993400ED7
:102030000001E75D05E000010001E951080B14E033
:10204000E7C0E6FFBFEC14F0E5520001EAA308D0B8
:10205000400E0001E75D04E1E66ABFEC14F0E552D2
:102060000001E76B0001E99725D0E66862EC15F006
:10207000E552E66862EC15F0E552E66862EC15F0B0
:10208000E552E66862EC15F0E552E66862EC15F0A0
:10209000E552E66862EC15F0E55218EC15F0CD90CB
:1020A000D59EF294F2900001E76B0001E9970001E0
:1020B000E99989903CEC05F0010EDB5001E08FD5E9
:1020C000010E00D0106E040EE15C02E2E16AE552FE
:1020D000E16E1050E552E7CFD9FF1200D9CFE6FFED
:1020E000E1CFD9FF060EE126050EDB6AFD0EDB50BF
:1020F000DF6E050EDB2A8DEC15F0E66ED9CF10F001
:10210000DACF11F0050EDB500F011024E96E000E3E
:102110001120EA6EE552E750EF6EFE0EDB50F36ED3
:10212000050EDBCFF4FFF350F45CE3E3DF50420A2B
:1021300042E0730A36E0010A2AE0350A1EE0030A8B
:1021400001E03FD0CA6A010EDB50CB6E020EDB50BD
:10215000000806E2020EDB50E76E010EE7CFDBFF60
:10216000010EDB407F0BBE6E010EDBA002D0BD8AEC
:1021700001D0BD9A050ECA6E24D0D56AF296010E22
:10218000DB50070BD512F290F286F2901AD0020EB5
:10219000DBCFE6FF010EDBCFE6FF5DDCE552E5526B
:1021A00010D0020EDBCFE6FF010EDBCFE6FF78DCBE
:1021B000E552E55206D09EA803D0010EDB50AD6E6D
:1021C00000D0060EE15C02E2E16AE552E16EE55202
:1021D000E7CFD9FF1200C00E9412240EAC6EAB6A8A
:1021E000080EB86E9D6A1200AC6AAB6A1200F2501B
:1021F000080B3EE0F250010B3BE081CFDAF0D5BE98
:1022000020D00001DAB91CD0D76AD66AF28AF294DB
:10221000D58ECF6ACE6A9E909D80CD8001011351EC
:1022200001080EE2A090B16A050EBA6EA190A080DE
:10223000060EB16EB36A010EB26EB1800001E66B9C
:1022400015D0D59ED6CFDAF0D7CFD9F0D76AD66AD7
:10225000F294D58ECD90CF6ACE6ACD800001E9B3DD
:1022600003D00001E98302D00001E989F2907AD01D
:10227000A150010B25E0A050010B22E0060E000149
:10228000E65D1DE20001E651EA6ADE0FE96E000E2E
:10229000EA22BCCFEFFF0001E62B0001E651EA6A1B
:1022A000DE0FE96E000EEA22BBCFEFFF0001E62B46
:1022B000A190060E0001E65D02E1A090BA6A52D03C
:1022C000F250200B44E0F250040B41E0CD90B1906D
:1022D000D59EF2940001E9A129D0F29A0001E9B556
:1022E0000ED00001DD5102E10001EA85F30EBD16BA
:1022F00089900001E991F290F286F29033D00001CA
:10230000E9BB06D0CC6A0C0EBD120001E98B04D0EB
:10231000F30EBD160001E99BDCC0D7FFDBC0D6FF82
:10232000F294F28AD58E0001E99510D00001E9B34C
:1023300009D00001D9690001DA690001E9830001CF
:10234000E98702D00001E989F286F2900BD09D5016
:10235000010B08E09E50010B05E00001E987000138
:10236000EA839E9012000001C26BC20EC36F010E81
:10237000C46FC56B0001C66B0001C76B0001080E7E
:10238000C86F0001C9910001C993B00EE66E240E1A
:10239000E66ED9EC0BF0E552E5521200000EE66E47
:1023A000E66A010EE66EE66AF5EC0BF0E552E552E0
:1023B000E552E552000EE66EE66A020EE66EE66A49
:1023C000F5EC0BF0E552E552E552E552000EE66EF3
:1023D000E66A020EE66EE66A13EC0CF0E552E55290
:1023E000E552E5521A0E716E1E0E726E04010D6BEF
:1023F0000401900E0E6F040E0F6F0401480E0C6F57
:10240000B00EE66E240EE66ED9EC0BF0E552E55206
:102410000001D86B0001100ED36F040ED46F0001C1
:10242000140ED56F040ED66F0001CD690001800E29
:10243000CF6F050ED06F0001CB6BD5C0E9FFD6C0C2
:10244000EAFF020EE926000EEA22800EEE6E050E6D
:10245000ED6ED5C0E9FFD6C0EAFFEE52EF6AD5C0F7
:10246000E9FFD6C0EAFF480EEF6E0001CC6B000119
:10247000CE690001000ED16F060ED26FD3C0E9FF06
:10248000D4C0EAFFEE52400EEF6ED3C0E9FFD4C0D5
:10249000EAFF020EE926000EEA22000EEE6E060E9C
:1024A000ED6ED3C0E9FFD4C0EAFF880EEF6E1200D4
:1024B000D9CFE6FFE1CFD9FF040EE126B8C0E9FF8E
:1024C000B9C0EAFF020EE926000EEA22EECFDEFFD7
:1024D000EDCFDDFFDECFE9FFDDCFEAFFEF50630B8D
:1024E000210A01E0BBD0DECFE9FFDDCFEAFF010E1C
:1024F000E926000EEA22EF50230A01E1ACD0010ADE
:1025000001E185D0030A2EE0010A1EE0220A19E04B
:10251000010A17E0070A15E0050A0BE0010A01E0CD
:102520009AD0000EE66EE66A35EC0CF0E552E55204
:1025300094D0000EE66EE66A35EC0CF0E552E552FA
:102540008CD055EC0CF089D08E0EE66E260EE66E21
:10255000000EE66EE66A13EC0CF0E552E552E55229
:10256000E5527BD0DECFE9FFDDCFEAFF060EE9269C
:10257000000EEA22020EEECFDBFF030EEDCFDBFFF3
:10258000020EDBCF10F0030EDBCF11F0070ED88068
:102590001054000E115407E2070EF36E020EF3CF33
:1025A000DBFF030EDB6A020EDBCFE6FF030EDBCFA1
:1025B000E6FFC20EE66E000EE66EBAC0E9FFBBC0D3
:1025C000EAFF020EE926000EEA22EECFE6FFEFCF89
:1025D000E6FFE7EC1CF0106E060EE15E1050020EF6
:1025E000DBCFE6FF030EDBCFE6FF35EC0CF0E55268
:1025F000E552740EE66E260EE66E000EE66EE66A94
:10260000F5EC0BF0E552E552E552E55226D0DECF6F
:10261000E9FFDDCFEAFF020EE926000EEA22EECF47
:10262000C9F0EDCFCAF0700EE66E280EE66E000E11
:10263000E66EE66AF5EC0BF0E552E552E552E5523E
:10264000000EE66EE66A35EC0CF0E552E55201014B
:10265000010E0F6F02D055EC0CF002D055EC0CF0CF
:10266000040EE15C02E2E16AE552E16EE552E7CF79
:10267000D9FF1200000EE66EE66A000EE66EE66A0C
:10268000F5EC0BF0E552E552E552E5521200D9CFD8
:10269000E6FFE1CFD9FF080EE126070EE66EE66AF7
:1026A000B8C0E9FFB9C0EAFF020EE926000EEA222F
:1026B000EECFE6FFEFCFE6FFC20EE66E000EE66E4F
:1026C000E7EC1CF0106E060EE15E1050106A1B0E57
:1026D000116EB70E126E136A10C004F011C005F02F
:1026E00012C006F013C007F0C2C009F0C3C00AF060
:1026F000C4C00BF0C5C00CF012EC1DF004C0DEFF2E
:1027000005C0DEFF06C0DEFF07C0DDFFDD52DD5283
:10271000C2C009F0C3C00AF0C4C00BF0C5C00CF0C1
:10272000046A1B0E056EB70E066E076A12EC1DF0EA
:10273000040E00C0DBFF050E01C0DBFF060E02C069
:10274000DBFF070E03C0DBFF040EDBCF10F0050E2E
:10275000DBCF11F0060EDBCF12F0070EDBCF13F04C
:10276000010E1F0B07E0D8901036113612361336C3
:10277000E806F9E10001C251105C0001C351115893
:102780000001C45112580001C551135809E2D9CFB4
:10279000E9FFDACFEAFFEE06000EEE5AEE5AEE5AE5
:1027A000D9CFE9FFDACFEAFFEECF10F0EECF11F08C
:1027B000EECF12F0EFCF13F01050AF6ED9CFE9FF8C
:1027C000DACFEAFFEECF10F0EECF11F0EECF12F03D
:1027D000EFCF13F0080ED8901332123211321032AC
:1027E000E806F9E11050B06E000EE66EE66A000EE3
:1027F000E66EE66A13EC0CF0E552E552E552E5525E
:10280000560EE66E280EE66E000EE66EE66AF5ECF3
:102810000BF0E552E552E552E552000EE66EE66A2F
:1028200035EC0CF0E552E552B8C0E9FFB9C0EAFF5B
:10283000EE52080EEF6EB8C0E9FFB9C0EAFF880E8D
:10284000EF6E080EE15C02E2E16AE552E16EE552EC
:10285000E7CFD9FF1200000EE66EE66A000EE66EC4
:10286000E66AF5EC0BF0E552E552E552E55212004E
:10287000000EE66EE66A000EE66EE66AF5EC0BF018
:10288000E552E552E552E5521200D3C0E9FFD4C04B
:10289000EAFFEF50800B01E0F8D71200D5C0E9FF46
:1028A000D6C0EAFFEF50800B01E0F8D71200D3C08A
:1028B000E9FFD4C0EAFFEF50800B02E0000E01D028
:1028C000010E00D01200D5C0E9FFD6C0EAFFEF50DC
:1028D000800B02E0000E01D0010E00D012000001BA
:1028E000D76BD3DF0001CEA112D00001000ED16F53
:1028F000060ED26FD3C0E9FFD4C0EAFF020EE9266C
:10290000000EEA22400EEE6E060EED6E11D00001B2
:10291000400ED16F060ED26FD3C0E9FFD4C0EAFFDC
:10292000020EE926000EEA22000EEE6E060EED6E95
:102930000001CE1FD3C0E9FFD4C0EAFFEE52EFCFB3
:10294000CCF0D3C0E9FFD4C0EAFFEE52400EEF6EE8
:10295000D3C0E9FFD4C0EAFFEF50400A400B800922
:102960000809E66ED3C0E9FFD4C0EAFFE552E7509C
:10297000EF6E3CEC05F00001CC5100D01200D9CF35
:10298000E6FFE1CFD9FFD5C0E9FFD6C0EAFFEF509F
:10299000800B01E0F8D70001CD5112E0D5C0E9FF6E
:1029A000D6C0EAFF020EE926000EEA22800EEE6E85
:1029B000050EED6E0001C00ECF6F050ED06F11D069
:1029C000D5C0E9FFD6C0EAFF020EE926000EEA22D2
:1029D000C00EEE6E050EED6E0001800ECF6F050E7F
:1029E000D06FD5C0E9FFD6C0EAFFEE52FE0EDBCFB6
:1029F000EFFFD5C0E9FFD6C0EAFFEF50400A400B19
:102A000080090809E66ED5C0E9FFD6C0EAFFE552A5
:102A1000E750EF6E0001CD1F3CEC05F0000E00D03A
:102A2000E552E7CFD9FF1200E66AA9DFE5521200AE
:102A30000001CB51000816E246DF000901E1FCD796
:102A4000CBC0E6FF9CDFE552400E0001CB5D04E108
:102A50000101010E116F02D00101116B0001CB6B5E
:102A60000101106B1200040E0101105D28E300014A
:102A7000CB51000819E20101125115E124DF0009D0
:102A800012E0CBC0E6FF7BDFE552400E0001CB5DDC
:102A900004E10101010E116F02D00101116B00016F
:102AA000CB6B0101106B0AD00101115107E0E66AFE
:102AB00066DFE5520101116B0101106B02D00101CB
:102AC000102B1200D9CFE6FFE1CFD9FF0101010E93
:102AD000126FFE0EDB50CFC0E9FFD0C0EAFFEF6EF1
:102AE0000001CF2B000ED0230001CB2B0101116B75
:102AF000400E0001CB5D09E1CBC0E6FF40DFE552AF
:102B00000001CB6B0101010E116F0101126B01017C
:102B1000106BE552E7CFD9FF1200D9CFE6FFE1CF26
:102B2000D9FFE652DF6A0001CC5106E1D8DE000190
:102B3000CC6F0001CC51FAE0D1C0E9FFD2C0EAFF6E
:102B4000EFCFDFFF0001D12B000ED2230001CC0715
:102B5000DF5000D0E552E552E7CFD9FF1200D9CFC0
:102B6000E6FFE1CFD9FF0001CC5117E0D1C0E9FF6A
:102B7000D2C0EAFFEF50E66EFD0EDBCFE9FFFE0E9E
:102B8000DBCFEAFFE552E750EF6E0001D12B000EDC
:102B9000D2230001CC07010E22D089DE00091DE0FE
:102BA0009EDE0001CC6F0001CC5117E0D1C0E9FFDF
:102BB000D2C0EAFFEF50E66EFD0EDBCFE9FFFE0E5E
:102BC000DBCFEAFFE552E750EF6E0001D12B000E9C
:102BD000D2230001CC07010E02D0000E00D0E55236
:102BE000E7CFD9FF1200D9CFE6FFE1CFD9FF00012F
:102BF000CC5111E0D1C0E9FFD2C0EAFFEF50E66E40
:102C0000FD0EDBCFE9FFFE0EDBCFEAFFE552E7501A
:102C1000EF6E010E1CD04BDE000917E060DE0001F4
:102C2000CC6F0001CC5111E0D1C0E9FFD2C0EAFF66
:102C3000EF50E66EFD0EDBCFE9FFFE0EDBCFEAFFC5
:102C4000E552E750EF6E010E02D0000E00D0E552C3
:102C5000E7CFD9FF1200D9CFE6FFE1CFD9FFE65287
:102C600061D9C2EC1AF0040EE66EE66ADB0EE66E7F
:102C7000380EE66E000EE66E980EE66E380EE66EC4
:102C8000000EE66E860EE66E380EE66E000EE66EFE
:102C900034EC04F0106E0B0EE15E1050B3EC11F04A
:102CA00082EC04F00101010E146F3CEC05F0040EFF
:102CB0000001B55D02E289900FD0200E0001B55DE4
:102CC00002E2899009D00101140506E1200E0001FD
:102CD000B55D02E10101146B200E0001B55DE5E375
:102CE000D9CFE6FFDACFE6FFF3EC15F0E552E55277
:102CF000000976E0DF50240A6AE0720A63E0200AE5
:102D000061E0220A5AE0200A58E0240A4DE0200A35
:102D10004BE0250A40E0200A3EE0260A2DE0200A8A
:102D20002BE0010A15E0200A13E0520A05E0010A2F
:102D300003E0030A01E051D00101010E166F3AECE5
:102D400018F00001CB6B0101166BC2EC1AF048D0F1
:102D50008DEC15F0DF6EC2EC1AF00101166B4F0E10
:102D6000E66E62EC15F0E5524B0EE66E62EC15F085
:102D7000E55218EC15F034D08DEC15F0DF6E010142
:102D8000020E166FE5EC0DF00001CB6B0101166B26
:102D9000C2EC1AF025D08DEC15F0DF6E0101030EA8
:102DA000166FF5EC1BF01CD08DEC15F0DF6E0101F9
:102DB000040E166F32EC1AF013D08DEC15F0DF6EA6
:102DC00017D80ED08DEC15F0DF6EFED809D08DEC43
:102DD00015F0DF6E0BEF00F003D08DEC15F0DF6E19
:102DE000D6EC1AF062D7E552E552E7CFD9FF1200D0
:102DF000D9CFE6FFE1CFD9FF030EE126DF6AF296D5
:102E00009D9293888B949494BD6ACA6A100EF36E57
:102E1000010EF3CFDBFF270EF36E020EF3CFDBFFC5
:102E2000010EDBCF10F0DB06020EDBCF11F001E26A
:102E3000DB061050111001E0F3D781B802D0000E6C
:102E4000DB80020E0101135D1EE182A2DF849494F7
:102E50008B84E80EF36E010EF3CFDBFF030EF36EEF
:102E6000020EF3CFDBFF010EDBCF10F0DB06020E0C
:102E7000DBCF11F001E2DB061050111001E0F3D7B7
:102E800082B2DF868B949E929D92520ECB6E050E7F
:102E9000CA6E290EBE6E1C0EBD6E400EF36E010E84
:102EA000F3CFDBFF9C0EF36E020EF3CFDBFF010EC0
:102EB000DBCF10F0DB06020EDBCF11F001E2DB0608
:102EC0001050111001E0F3D781B8DF82DF501FE00E
:102ED0008990460EE66E62EC15F0E552410EE66E04
:102EE00062EC15F0E5520C0EDF14E840E8403F0BB1
:102EF000300FE66E62EC15F0E552030EDF14300F72
:102F0000E66E62EC15F0E55218EC15F001D05CD8D5
:102F1000030EE15C02E2E16AE552E16EE552E7CFC1
:102F2000D9FF1200D9CFE6FFE1CFD9FF020EE1268B
:102F30000F0EC112B56A8B928B9094929490816A15
:102F4000EB0E936EF19E0A0EDE6EDD6ADFCF10F09F
:102F5000DF06010EDBCF11F001E2DB06105011108D
:102F600001E0F4D781A204D00101010E136F03D058
:102F70000101020E136FF18E936894829382948004
:102F800094948B9489809290BD6ABA6ACD6ACA6A19
:102F9000F18E160E8A16160E93169388F290F296FC
:102FA0009384F1849F809F82A282F180F08C9F8421
:102FB000D08EF28E020EE15C02E2E16AE552E16E31
:102FC000E552E7CFD9FF1200560EE66E62EC15F01F
:102FD000E552300E01011325E66E62EC15F0E55264
:102FE000320EE66E62EC15F0E552330EE66E62ECE0
:102FF00015F0E55218EF15F012001200DACFE4FFD9
:10300000E2CFDAFFE9CFE4FFEACFE4FFE6520101C5
:103010001651030A10E0030A0BE0020A06E0060A52
:1030200001E00CD065EC1AF00AD0F7EC10F007D0F4
:1030300031EC1BF004D03AEC1CF001D000D0E5528A
:10304000E5CFEAFFE5CFE9FFE5CFDAFF1100D8CF02
:10305000E4FFE0CFE4FFE46EDACFE4FFE2CFDAFF93
:10306000E652E552E5CFDAFFE550E5CFE0FFE5CFE8
:10307000D8FF1000D9CFE6FFE1CFD9FF0C0EE12633
:103080009D6AA090F29AF296F096CA94010EF36EA1
:10309000020EF3CFDBFF3CEC05F0D950010FE66EDA
:1030A000000EDA20E66EAFEC15F0E552E5520108AD
:1030B00001E030D1010EDB50130A01E1EDD0020A2C
:1030C00001E1E9D0150A01E1CBD0050A24E0030AA9
:1030D0000BE0020A01E0E1D09D92CA94F296020E42
:1030E000DB6AFF0E1DD116D1310EE66E62EC15F0D3
:1030F000E552410EE66E62EC15F0E5524C0EE66EBE
:1031000062EC15F0E552530EE66E62EC15F0E552F6
:1031100018EC15F0FFD0F290F2964EEC14F000018E
:10312000CB6B18EC15F018EC15F03CEC05F0899021
:103130000101176B030EDB6A040EDB6A8150CFC0FE
:10314000E9FFD0C0EAFFEF6E9D92CA949368F290B7
:10315000F29689803CEC05F081B8FCD70E0ECB6E60
:10316000090ECA6E9E92CA84CFC0E9FFD0C0EAFFA2
:10317000EF6A0001CF2B000ED023CFC0E9FFD0C0F3
:10318000EAFFEF6A0001CF2B000ED023CFC0E9FF8A
:10319000D0C0EAFFEF6A0001CF2B000ED023CFC0D2
:1031A000E9FFD0C0EAFFEF6A0001CF2B000ED02369
:1031B0008150CFC0E9FFD0C0EAFFEF6E160E106E4F
:1031C000CFC0E9FFD0C0EAFF1050EF1A0001CF2BAB
:1031D000000ED023050E0001CB27400EF36E030E28
:1031E000F3CFDBFF040EDB6A8990F19E0101010E33
:1031F000176F9EB2898068969EA2FDD78150DF6EC0
:10320000160EDF1A0001CFC0E9FFD0C0EAFFCF2BB6
:10321000000ED023DFCFEFFF0001CB2B9E92400E9C
:103220000001CB5D0CE1400EE66EBFEC14F0E55200
:103230000001CB6B030EDB06040E01E2DB06D95066
:10324000030FE96EDACFEAFFEE50ED10D2E089907D
:10325000CA943CEC05F014EC15F00101176B5AD040
:10326000400EE66E62EC15F0E552080EE66E62EC7A
:1032700015F0E552410EE66E62EC15F0E552020ED5
:10328000E66E62EC15F0E552E66A62EC15F0E55286
:1032900018EC15F03FD03ED03DD0010EDB50E76E6C
:1032A000050EE7CFDBFF040EF36E0A0EF3CFDBFF54
:1032B0000B0EDB6AD950050F106EDACF11F00B0E32
:1032C000DB500F011024E96E000E1120EA6E010E92
:1032D000DBCFEFFF0A0EDB50F36E0B0EDBCFF4FFFC
:1032E000F350F45C16E20B0EDB2A8DEC15F0E66E63
:1032F000D950050F106EDACF11F00B0EDB500F0115
:103300001024E96E000E1120EA6EE552E750EF6ED0
:10331000E1D700D0020EDB0401E1BDD6FF0E00D0E4
:10332000106E0C0EE15C02E2E16AE552E16E1050B3
:10333000E552E7CFD9FF1200BA6AF19AA090F09651
:10334000F090F296F29ACD969D909E909D929E92CC
:10335000CA94CC6A140E9312030E941201010F6BDF
:103360003CEC05F00001C9A1FBD70001C9A302D0C4
:1033700004D801D077D8F2D712000001FB930001E6
:10338000FC6BFD6B0001FB950001FB910001FA6BEA
:10339000CA6ACC6ABF0ECB6E0001FB97F2869D8293
:1033A0000001FBB303D03CEC05F0FAD73CEC05F090
:1033B0000001FBA530D00001FD9F0001FBA302D05E
:1033C0000001FD8F0001FC51CFC0E9FFD0C0EAFF32
:1033D000EF6E0001CF2B000ED023FCC010F0FDC01B
:1033E00011F0080E0F0B05E0D89011321032E806EC
:1033F000FBE11050CFC0E9FFD0C0EAFFEF6E000143
:10340000CF2B000ED023020E0001FA270001FB95FE
:103410000001FC6BFD6B1E0E0001FA5D08E000016F
:103420000001FB51010B0CE00001FA5109E0FAC068
:10343000E6FFBFEC14F0E5520001FA6B0001FB91CE
:103440000001C9B1B3D70001FA510BE0FAC0E6FFA1
:10345000BFEC14F0E552F2969D929E929D909E9044
:10346000CD901200030ECA6ECC6A4A0ECB6E0001DC
:10347000FA6B0001FE6B0001FB87E66A36EC1DF07B
:10348000E552F090F0863CEC05F01E0E0001FA5D6E
:103490000BE3F29EFAC0E6FFBFEC14F0E552000920
:1034A00002E00001FA6BF28E0001C9B1ECD7F09690
:1034B000F090CA949D929E920001FA5105E0FAC0E4
:1034C000E6FFBFEC14F0E5521200D9CFE6FFE1CFE2
:1034D000D9FFE652F050080B0FE0F050010B0CE062
:1034E000F090CAA405D00001FE2B0001FB8503D09B
:1034F000CA849E929D8241D09D50020B1EE09E5038
:10350000020B1BE00001FBA70ED0CFC0E9FFD0C02B
:10351000EAFFFEC0EFFF0001CF2B000ED023000119
:10352000FA2B9E9209D00001FC2B000EFD239E92E7
:10353000CD90CF6ACE6ACD8020D0F250080B14E037
:10354000F250010B11E08150DF6EDFA803D00001C3
:10355000FB9302D00001FB830001FB85CD90CF6A75
:10356000CE6ACD80F29009D09D50010B06E09E50AE
:10357000010B03E00001FB819E90E552E552E7CF8D
:10358000D9FF1200D9CFE6FFE1CFD9FFE652815033
:10359000DF6E0101186BBD6ACA6A9D929E92F2901D
:1035A000F286E552E552E7CFD9FF1200D9CFE6FF08
:1035B000E1CFD9FFE652040E0101185D4DE1DF6A4B
:1035C0000001020EF96F070E0001F95D0EE2DF9EA9
:1035D000DF460001F951EA6AF10FE96E000EEA22B6
:1035E000EF50DF120001F92BEED7DFCFE6FF62ECE0
:1035F00015F0E5520001F11DDF6E0001070EF96FB5
:103600000D0E0001F95D0EE2DF9EDF460001F9516B
:10361000EA6AF10FE96E000EEA22EF50DF120001B4
:10362000F92BEED7DFCFE6FF62EC15F0E552E66A44
:1036300062EC15F0E552E66A62EC15F0E552E66AD6
:1036400062EC15F0E552E66A62EC15F0E55218EC12
:1036500015F00101186BF286E552E552E7CFD9FF6C
:103660001200F250080B17E0F250010B14E00101B8
:1036700018510FE1100E81140CE1F2968980DD0ED5
:10368000CB6E290ECA6E9E929D82CA840101010EE4
:10369000186FF29061D09D50020B5EE09E50020BBD
:1036A0005BE001011851030A1EE0010A12E0030A5F
:1036B00001E051D0CA94DD0ECB6E590ECA6E0001E6
:1036C000F06B0101020E186F9E929D82CA84899050
:1036D00042D08150100B01E0010E0001EE6F01019C
:1036E000030E186F38D08150100B01E0010E00015D
:1036F000EF6F0001EE050DE10001EF510AE100015D
:10370000F051EA6AF10FE96E000EEA22010EEF6E47
:1037100014D00001EE510CE10001EF0509E10001B8
:10372000F051EA6AF10FE96E000EEA22EF6A05D065
:103730000101186BCA94F2860ED00101020E186FB7
:103740000001F02B0D0E0001F05D04E10101040EFB
:10375000186FCA9400D09E921200D9CFE6FFE1CF35
:10376000D9FFE6529D6AA090F29AF296F0969E9A40
:10377000080EDF6EF19E938A93869292929481AAAC
:1037800003D00001FF6B03D00001010EFF6F81B673
:1037900003D0000EDB88DB8A550EE66E62EC15F076
:1037A000E552300EE66E62EC15F0E552310EE66E33
:1037B00062EC15F0E55218EC15F0C00E9412240ED0
:1037C000AC6E900EAB6EDF50B86E200E9D6E9F8A71
:1037D000660EE66E2A0EE66ECBEC0BF0E552E55275
:1037E000E552E552E7CFD9FF1200D9CFE6FFE1CF8E
:1037F000D9FFE652B2DF3CEC05F00001FF5111E0C9
:1038000000010001C951020B02E0898201D08992B6
:1038100000010001C951010B02E0898401D08994A3
:1038200010D000010001C951020B02E0899201D0C1
:10383000898200010001C951010B02E0899401D085
:1038400089849EA80CD0D9CFE6FFDACFE6FFAFEC93
:1038500015F0E552E552000902E0DF50AD6E060EAC
:10386000AB1402E0AB98AB88C6D7E552E552E7CF80
:10387000D9FF12009EAA06D0AE50E66E62EC15F09B
:10388000E552897012001201000202000008D804FB
:1038900008FD020001020301090243000201008049
:1038A0006409040000010202010005240010010463
:1038B00024020205240600010524010101070581F7
:1038C000030A004009040100020A00000007050283
:1038D0000240000007058202400000040309042A98
:1038E00003440061006E006700650072006F0075A0
:1038F0000073002000500072006F0074006F0074AD
:103900000079007000650073001203490052002026
:103910000054004F00590020002000200012033006
:103920000030003000300030003000300031000046
:103930002A0EF66E080EF76E000EF86E01010900F1
:10394000F550056F0900F550066F03E1056701D0DA
:103950003DD00900F550006F0900F550016F0900D6
:10396000F550026F09000900F550E96E0900F550A5
:10397000EA6E090009000900F550036F0900F550CF
:10398000046F09000900F6CF07F1F7CF08F1F8CF6F
:1039900009F100C1F6FF01C1F7FF02C1F8FF010103
:1039A000035302E1045307E00900F550EE6E0307EC
:1039B000F8E20407F9D707C1F6FF08C1F7FF09C10C
:1039C000F8FF01010507000E065BBFD71200D9CF33
:1039D000E6FFDACFE6FFFA0EE3CFD9FFFB0EE3CF27
:1039E000DAFFFC0EE3CFE9FFFD0EE3CFEAFFE9CFFC
:1039F000F3FFEACFF4FFF80EE35003E1F90EE350D2
:103A000008E0F80EE30602E2F90EE306DECFEEFF71
:103A1000F2D7FF0EE3CFDAFFE552FF0EE3CFD9FF77
:103A2000E5521200036A026A016A006A200EE76E1C
:103A3000D89004360536063607360036013602368B
:103A400003360950005C0A5001580B5002580C50C4
:103A5000035809E30950005E0A50015A0B50025AFC
:103A60000C50035A042AE72EE4D71200FF0EE3504D
:103A7000166EEF0E01D0F30EE76EE72E3DEF1DF050
:103A80000C0E156EE76AE72E43EF1DF0152E42EF80
:103A90001DF0162E3BEF1DF01200000EF36E00EE2F
:103AA00000F0080E01D81200EA6002D0EE6AFCD7DE
:103AB000F350E9601200EE6AFCD713EE00F023EE3B
:103AC00000F0F86A0F9C98EC1CF06BEC1DF02BECEE
:103AD00016F0FBD712001200004E4F454D53000068
:103AE00000000000FFFFFFFFFFFFFFFFFFFFFFFFE2
:103AF000FFFFFFFFFFFFFFFFFFFFFFFFFFFFFFFFD6
:103B0000FFFFFFFFFFFFFFFFFFFFFFFFFFFFFFFFC5
:103B1000FFFFFFFFFFFFFFFFFFFFFFFFFFFFFFFFB5
:103B2000FFFFFFFFFFFFFFFFFFFFFFFFFFFFFFFFA5
:0200000400F00A
:020000040030CA
:0E000000240E3F1E008181000FC00FE00F4054
:020000040020DA
:08000000FFFFFFFFFFFFFFFF00
:00000001FF
